{
  "contractName": "CarInsurance",
  "abi": [
    {
      "inputs": [],
      "payable": false,
      "stateMutability": "nonpayable",
      "type": "constructor"
    },
    {
      "constant": true,
      "inputs": [
        {
          "internalType": "address",
          "name": "",
          "type": "address"
        },
        {
          "internalType": "uint256",
          "name": "",
          "type": "uint256"
        }
      ],
      "name": "claims",
      "outputs": [
        {
          "internalType": "uint256",
          "name": "claimAmount",
          "type": "uint256"
        },
        {
          "internalType": "uint256",
          "name": "claimDate",
          "type": "uint256"
        },
        {
          "internalType": "bool",
          "name": "isProcessed",
          "type": "bool"
        },
        {
          "internalType": "bool",
          "name": "isApproved",
          "type": "bool"
        }
      ],
      "payable": false,
      "stateMutability": "view",
      "type": "function"
    },
    {
      "constant": true,
      "inputs": [],
      "name": "insurer",
      "outputs": [
        {
          "internalType": "address",
          "name": "",
          "type": "address"
        }
      ],
      "payable": false,
      "stateMutability": "view",
      "type": "function"
    },
    {
      "constant": true,
      "inputs": [
        {
          "internalType": "address",
          "name": "",
          "type": "address"
        }
      ],
      "name": "policies",
      "outputs": [
        {
          "internalType": "address",
          "name": "policyHolder",
          "type": "address"
        },
        {
          "internalType": "uint256",
          "name": "premium",
          "type": "uint256"
        },
        {
          "internalType": "uint256",
          "name": "coverageAmount",
          "type": "uint256"
        },
        {
          "internalType": "bool",
          "name": "isActive",
          "type": "bool"
        },
        {
          "internalType": "uint256",
          "name": "startDate",
          "type": "uint256"
        },
        {
          "internalType": "uint256",
          "name": "endDate",
          "type": "uint256"
        },
        {
          "internalType": "uint256",
          "name": "kidDrivers",
          "type": "uint256"
        },
        {
          "internalType": "uint256",
          "name": "age",
          "type": "uint256"
        },
        {
          "internalType": "uint256",
          "name": "income",
          "type": "uint256"
        },
        {
          "internalType": "uint256",
          "name": "mvrPts",
          "type": "uint256"
        }
      ],
      "payable": false,
      "stateMutability": "view",
      "type": "function"
    },
    {
      "constant": false,
      "inputs": [
        {
          "internalType": "uint256",
          "name": "_premium",
          "type": "uint256"
        },
        {
          "internalType": "uint256",
          "name": "_coverageAmount",
          "type": "uint256"
        },
        {
          "internalType": "uint256",
          "name": "_startDate",
          "type": "uint256"
        },
        {
          "internalType": "uint256",
          "name": "_endDate",
          "type": "uint256"
        },
        {
          "internalType": "uint256",
          "name": "_kidDrivers",
          "type": "uint256"
        },
        {
          "internalType": "uint256",
          "name": "_age",
          "type": "uint256"
        },
        {
          "internalType": "uint256",
          "name": "_income",
          "type": "uint256"
        },
        {
          "internalType": "uint256",
          "name": "_mvrPts",
          "type": "uint256"
        }
      ],
      "name": "purchasePolicy",
      "outputs": [],
      "payable": true,
      "stateMutability": "payable",
      "type": "function"
    },
    {
      "constant": false,
      "inputs": [
        {
          "internalType": "uint256",
          "name": "_claimAmount",
          "type": "uint256"
        },
        {
          "internalType": "uint256",
          "name": "_claimDate",
          "type": "uint256"
        },
        {
          "internalType": "bool",
          "name": "_isProcessed",
          "type": "bool"
        },
        {
          "internalType": "bool",
          "name": "_isApproved",
          "type": "bool"
        }
      ],
      "name": "submitClaim",
      "outputs": [],
      "payable": false,
      "stateMutability": "nonpayable",
      "type": "function"
    },
    {
      "constant": false,
      "inputs": [
        {
          "internalType": "address payable",
          "name": "_policyHolder",
          "type": "address"
        },
        {
          "internalType": "uint256",
          "name": "_claimIndex",
          "type": "uint256"
        }
      ],
      "name": "processClaim",
      "outputs": [],
      "payable": false,
      "stateMutability": "nonpayable",
      "type": "function"
    },
    {
      "constant": true,
      "inputs": [
        {
          "internalType": "address",
          "name": "_policyHolder",
          "type": "address"
        }
      ],
      "name": "getPolicyDetails",
      "outputs": [
        {
          "internalType": "address",
          "name": "policyHolder",
          "type": "address"
        },
        {
          "internalType": "uint256",
          "name": "premium",
          "type": "uint256"
        },
        {
          "internalType": "uint256",
          "name": "coverageAmount",
          "type": "uint256"
        },
        {
          "internalType": "bool",
          "name": "isActive",
          "type": "bool"
        },
        {
          "internalType": "uint256",
          "name": "startDate",
          "type": "uint256"
        },
        {
          "internalType": "uint256",
          "name": "endDate",
          "type": "uint256"
        },
        {
          "internalType": "uint256",
          "name": "kidDrivers",
          "type": "uint256"
        },
        {
          "internalType": "uint256",
          "name": "age",
          "type": "uint256"
        },
        {
          "internalType": "uint256",
          "name": "income",
          "type": "uint256"
        },
        {
          "internalType": "uint256",
          "name": "mvrPts",
          "type": "uint256"
        }
      ],
      "payable": false,
      "stateMutability": "view",
      "type": "function"
    },
    {
      "constant": true,
      "inputs": [
        {
          "internalType": "address",
          "name": "_policyHolder",
          "type": "address"
        },
        {
          "internalType": "uint256",
          "name": "_claimIndex",
          "type": "uint256"
        }
      ],
      "name": "getClaimDetails",
      "outputs": [
        {
          "internalType": "uint256",
          "name": "claimAmount",
          "type": "uint256"
        },
        {
          "internalType": "uint256",
          "name": "claimDate",
          "type": "uint256"
        },
        {
          "internalType": "bool",
          "name": "isProcessed",
          "type": "bool"
        },
        {
          "internalType": "bool",
          "name": "isApproved",
          "type": "bool"
        }
      ],
      "payable": false,
      "stateMutability": "view",
      "type": "function"
    }
  ],
  "bytecode": "0x608060405234801561001057600080fd5b50600280546001600160a01b03191633179055610a17806100326000396000f3fe60806040526004361061007b5760003560e01c80636ffc215c1161004e5780636ffc215c146101e3578063ab541a851461021c578063d662283e14610255578063dbc837c51461029d5761007b565b80631bbe5ff91461008057806320e98698146100e157806345f23e291461016e5780635b1c3366146101a1575b600080fd5b34801561008c57600080fd5b506100b9600480360360408110156100a357600080fd5b506001600160a01b0381351690602001356102ce565b6040805194855260208501939093529015158383015215156060830152519081900360800190f35b3480156100ed57600080fd5b506101146004803603602081101561010457600080fd5b50356001600160a01b0316610361565b604080516001600160a01b03909b168b5260208b0199909952898901979097529415156060890152608088019390935260a087019190915260c086015260e085015261010084015261012083015251908190036101400190f35b34801561017a57600080fd5b506101146004803603602081101561019157600080fd5b50356001600160a01b03166103c0565b3480156101ad57600080fd5b506101e1600480360360808110156101c457600080fd5b5080359060208101359060408101351515906060013515156104f9565b005b3480156101ef57600080fd5b506101e16004803603604081101561020657600080fd5b506001600160a01b03813516906020013561062c565b34801561022857600080fd5b506100b96004803603604081101561023f57600080fd5b506001600160a01b0381351690602001356107b8565b6101e1600480360361010081101561026c57600080fd5b5080359060208101359060408101359060608101359060808101359060a08101359060c08101359060e00135610803565b3480156102a957600080fd5b506102b2610921565b604080516001600160a01b039092168252519081900360200190f35b6000806000806102dc610930565b6001600160a01b038716600090815260016020526040902080548790811061030057fe5b6000918252602091829020604080516080810182526003939093029091018054808452600182015494840185905260029091015460ff808216151593850184905261010090910416151560609093018390529a929950975095509350505050565b60006020819052908152604090208054600182015460028301546003840154600485015460058601546006870154600788015460088901546009909901546001600160a01b03909816989697959660ff9095169593949293919290918a565b6000806000806000806000806000806103d761095c565b6000808d6001600160a01b03166001600160a01b03168152602001908152602001600020604051806101400160405290816000820160009054906101000a90046001600160a01b03166001600160a01b03166001600160a01b0316815260200160018201548152602001600282015481526020016003820160009054906101000a900460ff1615151515815260200160048201548152602001600582015481526020016006820154815260200160078201548152602001600882015481526020016009820154815250509050806000015181602001518260400151836060015184608001518560a001518660c001518760e001518861010001518961012001519a509a509a509a509a509a509a509a509a509a50509193959799509193959799565b336000908152602081905260409020600381015460ff1661055a576040805162461bcd60e51b8152602060048201526016602482015275139bc81858dd1a5d99481c1bdb1a58de48199bdd5b9960521b604482015290519081900360640190fd5b80600501544211156105a8576040805162461bcd60e51b8152602060048201526012602482015271141bdb1a58de481a185cc8195e1c1a5c995960721b604482015290519081900360640190fd5b5033600090815260016020818152604080842081516080810183529889528883019788529515159088019081529315156060880190815285548084018755958452922095516003909402909501928355925193820193909355915160029092018054915115156101000261ff001993151560ff199093169290921792909216179055565b6002546001600160a01b031633146106755760405162461bcd60e51b81526004018080602001828103825260288152602001806109bb6028913960400191505060405180910390fd5b6001600160a01b038216600090815260016020526040812080548390811061069957fe5b60009182526020909120600390910201600281015490915060ff1615610706576040805162461bcd60e51b815260206004820152601760248201527f436c61696d20616c72656164792070726f636573736564000000000000000000604482015290519081900360640190fd5b6001600160a01b038316600090815260208190526040902060068101546002118015610736575060198160070154115b8015610747575061c3508160080154115b8015610757575060038160090154105b156107a55760028201805461ff00191661010017905581546040516001600160a01b0386169180156108fc02916000818181858888f193505050501580156107a3573d6000803e3d6000fd5b505b50600201805460ff191660011790555050565b600160205281600052604060002081815481106107d157fe5b600091825260209091206003909102018054600182015460029092015490935090915060ff8082169161010090041684565b873414610857576040805162461bcd60e51b815260206004820152601860248201527f496e636f7272656374207072656d69756d20616d6f756e740000000000000000604482015290519081900360640190fd5b60408051610140810182523380825260208083019b8c528284019a8b52600160608401818152608085019b8c5260a085019a8b5260c08501998a5260e085019889526101008501978852610120850196875260009384529183905293909120915182546001600160a01b0319166001600160a01b0390911617825599519181019190915596516002880155965160038701805460ff191691151591909117905593516004860155915160058501555160068401555160078301555160088201559051600990910155565b6002546001600160a01b031681565b604051806080016040528060008152602001600081526020016000151581526020016000151581525090565b60405180610140016040528060006001600160a01b031681526020016000815260200160008152602001600015158152602001600081526020016000815260200160008152602001600081526020016000815260200160008152509056fe4f6e6c792074686520696e73757265722063616e20706572666f726d207468697320616374696f6ea265627a7a72315820f89a4faf42af246a0ec6d3dcc02bd69140f8ca15dc14bd5a8cde80ec71ff2fd564736f6c63430005100032",
  "source": "// SPDX-License-Identifier: MIT\r\npragma solidity ^0.5.16;\r\n\r\ncontract CarInsurance {\r\n    struct Policy {\r\n        address policyHolder;\r\n        uint256 premium;\r\n        uint256 coverageAmount;\r\n        bool isActive;\r\n        uint256 startDate;\r\n        uint256 endDate;\r\n        uint256 kidDrivers;\r\n        uint256 age;\r\n        uint256 income;\r\n        uint256 mvrPts;\r\n    }\r\n\r\n    struct Claim {\r\n        uint256 claimAmount;\r\n        uint256 claimDate;\r\n        bool isProcessed;\r\n        bool isApproved;\r\n    }\r\n\r\n    mapping(address => Policy) public policies;\r\n    mapping(address => Claim[]) public claims;\r\n    address public insurer;\r\n\r\n    constructor() public {\r\n        insurer = msg.sender;\r\n    }\r\n\r\n    modifier onlyInsurer() {\r\n        require(msg.sender == insurer, \"Only the insurer can perform this action\");\r\n        _;\r\n    }\r\n\r\n    function purchasePolicy(\r\n        uint256 _premium,\r\n        uint256 _coverageAmount,\r\n        uint256 _startDate,\r\n        uint256 _endDate,\r\n        uint256 _kidDrivers,\r\n        uint256 _age,\r\n        uint256 _income,\r\n        uint256 _mvrPts\r\n    ) public payable {\r\n        require(msg.value == _premium, \"Incorrect premium amount\");\r\n\r\n        policies[msg.sender] = Policy({\r\n            policyHolder: msg.sender,\r\n            premium: _premium,\r\n            coverageAmount: _coverageAmount,\r\n            isActive: true,\r\n            startDate: _startDate,\r\n            endDate: _endDate,\r\n            kidDrivers: _kidDrivers,\r\n            age: _age,\r\n            income: _income,\r\n            mvrPts: _mvrPts\r\n        });\r\n    }\r\n\r\n    function submitClaim(\r\n        uint256 _claimAmount,\r\n        uint256 _claimDate,\r\n        bool _isProcessed,\r\n        bool _isApproved\r\n    ) public {\r\n        Policy storage policy = policies[msg.sender];\r\n        require(policy.isActive, \"No active policy found\");\r\n        require(block.timestamp <= policy.endDate, \"Policy has expired\");\r\n\r\n        claims[msg.sender].push(Claim({\r\n            claimAmount: _claimAmount,\r\n            claimDate: _claimDate,\r\n            isProcessed: _isProcessed,\r\n            isApproved: _isApproved\r\n        }));\r\n    }\r\n\r\n    function processClaim(address payable _policyHolder, uint256 _claimIndex) public onlyInsurer {\r\n        Claim storage claim = claims[_policyHolder][_claimIndex];\r\n        require(!claim.isProcessed, \"Claim already processed\");\r\n\r\n        Policy storage policy = policies[_policyHolder];\r\n        if (policy.kidDrivers < 2 && policy.age > 25 && policy.income > 50000 && policy.mvrPts < 3) {\r\n            claim.isApproved = true;\r\n            _policyHolder.transfer(claim.claimAmount);\r\n        }\r\n        \r\n        claim.isProcessed = true;\r\n    }\r\n\r\n    function getPolicyDetails(address _policyHolder) public view returns (\r\n        address policyHolder,\r\n        uint256 premium,\r\n        uint256 coverageAmount,\r\n        bool isActive,\r\n        uint256 startDate,\r\n        uint256 endDate,\r\n        uint256 kidDrivers,\r\n        uint256 age,\r\n        uint256 income,\r\n        uint256 mvrPts\r\n    ) {\r\n        Policy memory policy = policies[_policyHolder];\r\n        return (\r\n            policy.policyHolder,\r\n            policy.premium,\r\n            policy.coverageAmount,\r\n            policy.isActive,\r\n            policy.startDate,\r\n            policy.endDate,\r\n            policy.kidDrivers,\r\n            policy.age,\r\n            policy.income,\r\n            policy.mvrPts\r\n        );\r\n    }\r\n\r\n    function getClaimDetails(address _policyHolder, uint256 _claimIndex) public view returns (\r\n        uint256 claimAmount,\r\n        uint256 claimDate,\r\n        bool isProcessed,\r\n        bool isApproved\r\n    ) {\r\n        Claim memory claim = claims[_policyHolder][_claimIndex];\r\n        return (\r\n            claim.claimAmount,\r\n            claim.claimDate,\r\n            claim.isProcessed,\r\n            claim.isApproved\r\n        );\r\n    }\r\n}",
  "sourcePath": "C:\\Users\\Lenovo\\Documents\\web3project\\smartcontracts\\contracts\\CarInsurance.sol",
  "compiler": {
    "name": "solc",
    "version": "0.5.16+commit.9c3226ce.Emscripten.clang"
  },
  "schemaVersion": "3.4.16",
  "updatedAt": "2024-06-17T07:40:06.100Z",
  "networkType": "ethereum",
  "devdoc": {
    "methods": {}
  },
  "userdoc": {
    "methods": {}
  }
}